:020000040800F2
:100000000000082029710008613C0008633C0008DA
:10001000653C0008673C0008693C000800000000DF
:100020000000000000000000000000006B3C000821
:100030006D3C0008000000006F3C0008713C0008A7
:1000400079710008797100087971000879710008E8
:1000500079710008797100087971000879710008D8
:1000600079710008797100087971000879710008C8
:1000700079710008797100087971000879710008B8
:1000800079710008797100087971000879710008A8
:100090007971000879710008797100087971000898
:1000A0007971000879710008797100087971000888
:1000B0007971000879710008797100087971000878
:1000C0007971000879710008797100087971000868
:1000D0007971000879710008797100087971000858
:1000E0007971000879710008797100087971000848
:1000F0007971000879710008797100087971000838
:100100007971000879710008797100087971000827
:100110007971000879710008793C0008893C000871
:100120007971000879710008797100087971000807
:1001300079710008797100087971000879710008F7
:1001400079710008797100087971000879710008E7
:1001500079710008797100087971000879710008D7
:1001600079710008797100087971000879710008C7
:1001700079710008797100087971000800000000A9
:1001800079710008797100087971000879710008A7
:100190007971000879710008797100087971000897
:1001A0007971000879710008797100087971000887
:1001B0007971000879710008797100087971000877
:1001C0007971000879710008000000007971000859
:1001D0007971000879710008797100087971000857
:1001E000993C0008A93C0008B93C0008C93C00083B
:0801F000797100087971000823
:1002000010B5054C237833B9044B13B10448AFF350
:1002100000800123237010BDDC01002000000000DD
:100220007891000808B5034B1BB103490348AFF3AD
:10023000008008BD00000000E00100207891000867
:1002400053B94AB9002908BF00281CBF4FF0FF313D
:100250004FF0FF3000F072B9ADF1080C6DE904CE3B
:1002600000F006F8DDF804E0DDE9022304B0704791
:100270002DE9F047089E04468846002B4BD18A4260
:10028000154667D9B2FA82F24AB1C2F1200701FAE3
:1002900002F320FA07F7954047EA030894404FEA33
:1002A000154E230CB8FBFEF71FFA85FC0EFB1788D2
:1002B00043EA084307FB0CF1994209D9EB1807F10F
:1002C000FF3080F01B81994240F21881023F2B449D
:1002D0005B1AA4B2B3FBFEF00EFB103344EA0344F6
:1002E00000FB0CFCA44509D92C1900F1FF3380F068
:1002F0000781A44540F2048102382C4440EA0740BB
:10030000A4EB0C0400271EB1D4400023C6E900432F
:100310003946BDE8F0878B4209D9002E00F0EB800A
:100320000027C6E9000138463946BDE8F087B3FA30
:1003300083F7002F47D18B4202D3824200F2FA802A
:10034000841A61EB030301209846002EE0D0C6E931
:100350000048DDE702B9FFDEB2FA82F2002A40F07F
:100360008F80491B4FEA154E1FFA85F80127B1FB14
:10037000FEFC230C0EFB1C1143EA014308FB0CF1AD
:10038000994207D9EB180CF1FF3002D2994200F2E2
:10039000CD808446591AA3B2B1FBFEF00EFB1014B7
:1003A00043EA044408FB00F8A04507D92C1900F1E2
:1003B000FF3302D2A04500F2B6801846A4EB080431
:1003C00040EA0C409FE7C7F1200CBB4022FA0CFE2C
:1003D0004EEA030E01FA07F420FA0CF521FA0CF3A9
:1003E0004FEA1E482543B3FBF8F92C0C08FB1933E0
:1003F0001FFA8EFA44EA034309FB0AF49C4202FA0C
:1004000007F200FA07F10BD91EEB030309F1FF30E5
:1004100080F087809C4240F28480A9F102097344F5
:100420001B1BADB2B3FBF8F008FB103345EA0344E5
:1004300000FB0AFAA24508D91EEB040400F1FF33C1
:100440006BD2A24569D90238744440EA0940A0FB46
:100450000289A4EB0A044C45C2464B4654D351D002
:10046000002E69D0B1EB0A0564EB030404FA0CFC1E
:10047000FD40FC404CEA0505C6E90054002747E76B
:10048000C2F1200320FA03F7954001FA02F021FAA5
:1004900003F34FEA154E3843010CB3FBFEF71FFA86
:1004A00085F80EFB173341EA034107FB08F38B4243
:1004B00004FA02F407D9691807F1FF3C2FD28B42E6
:1004C0002DD9023F2944CB1A81B2B3FBFEF00EFBBB
:1004D000103341EA034100FB08F38B4207D9691846
:1004E00000F1FF3C17D28B4215D902382944C91AB2
:1004F00040EA07473BE73746304609E70746E7E665
:100500001846FBE64145ABD2B8EB020A69EB0E0296
:1005100001381346A4E76046E9E7184695E76746C1
:10052000D1E781467CE702382C4447E7ACF1020C66
:100530002B442FE7384608E73746E9E6704700BF07
:10054000034613F8012B002AFBD1181A0138704713
:1005500001F0FF01102A2BDB10F0070F08D010F874
:10056000013B013A8B422DD010F0070F42B3F6D178
:10057000F0B441EA012141EA014122F007047FF091
:1005800000070023F0E80256083C85EA010586EAE8
:10059000010685FA47F5A3FA87F586FA47F6A5FA24
:1005A00087F68EB9EED1F0BC01F0FF0102F0070230
:1005B00032B110F8013B013A83EA010313B1F8D1DB
:1005C0000020704701387047002D06BF35460338BC
:1005D000073815F0010F07D1013015F4807F02BFF5
:1005E000013015F4C03F0130F0BC0138704700BF46
:1005F00008B50D480D4B036006234360002383605C
:10060000C3604FF4502202614FF40012426103763E
:1006100043768376C3760377437704F0E9F800B92D
:1006200008BD02F03FF9FBE794040020006400409D
:1006300008B50D480D4B036003234360002383601E
:10064000C3604FF4502202614FF4001242610376FE
:1006500043768376C3760377437704F0C9F800B90D
:1006600008BD02F01FF9FBE76804002000680040A5
:1006700008B50D480D4B03600323436000238360DE
:10068000C3604FF4502202614FF4001242610376BE
:1006900043768376C3760377437704F0A9F800B9ED
:1006A00008BD02F0FFF8FBE74004002000340040E2
:1006B00000B591B000230B930C930D930E930F9301
:1006C0000368754A934208D0744A93422ED0744A04
:1006D000934276D011B05DF804FB724A136801337F
:1006E0001360012B17D0704B1A6B42F001021A6392
:1006F0001B6B03F001030293029B4FF4C0530B9357
:1007000002230C9303230E9309230F930BA967482D
:1007100004F0B0FCDEE7644B1A6C42F000721A641D
:100720001B6C03F000730193019BDCE75D4A536887
:1007300001335360012B23D05A4A936801339360ED
:10074000012B28D0574A136801331360012B2DD099
:10075000554B1A6B42F002021A631B6B03F0020343
:100760000693069B4FF440530B9302230C930323F1
:100770000E9309230F930BA94D4804F07BFCA9E7C6
:10078000494B1A6C42F400521A641B6C03F4005378
:100790000393039BD0E7444B1A6C42F080621A64C7
:1007A0001B6C03F080630493049BCBE73E4B1A6CF5
:1007B00042F000721A641B6C03F000730593059BF2
:1007C000C6E7384A536801335360012B43D0354A9A
:1007D000936801339360012B48D0324A1368013388
:1007E0001360012B4DD0304B1A6B42F001021A639B
:1007F0001B6B03F001030A930A9B4FF401430B9315
:1008000002230C9303230E930B230F930BA927486A
:1008100004F030FC00221146682004F0C3FB68207D
:1008200004F0F2FB00221146692004F0BBFB6920B2
:1008300004F0EAFB002211466A2004F0B3FB6A20B0
:1008400004F0E2FB002211466B2004F0ABFB6B20AE
:1008500004F0DAFB3EE7144B1A6C42F400521A64BF
:100860001B6C03F400530793079BB0E70E4B1A6C05
:1008700042F080621A641B6C03F080630893089B4B
:10088000ABE7094B1A6C42F000721A641B6C03F060
:1008900000730993099BA6E70064004000680040CC
:1008A00000340040F80100200038024000000240FF
:1008B0000004024000B58BB000230693012207928A
:1008C00000930193E02102910393049308920E2276
:1008D000099205936946064804F030F8032305930E
:1008E0006946044804F02AF80BB05DF804FB00BF29
:1008F000940400204004002000B58BB00022069232
:1009000001230793202100910192E021029103929B
:10091000049308930E22099205936946024804F055
:100920000DF80BB05DF804FB9404002000B58BB00B
:100930000022069201230793E02100910192029187
:100940000392049308930E230993042305936946A5
:10095000024803F0F3FF0BB05DF804FB40040020F5
:1009600038B5FFF7A7FFFFF7C7FFFFF7DFFF0C4D15
:10097000284604F07DF80B4C204604F079F802215B
:10098000284604F0B2F91021284604F0AEF90221FD
:10099000204604F0AAF91021204604F0A6F938BD3B
:1009A0009404002040040020014B1872704700BFDF
:1009B00004020020014B5872704700BF040200205F
:1009C000F0B591B00EAB07AA00212E4804F0F3F861
:1009D00020B12D4B00221A7711B0F0BD4FF48041A9
:1009E0002A4804F048FC284B03F10C0210A911E935
:1009F000030082E803001A7B062A2DD0224B1A75C9
:100A00005A7B5A759A7B9A75DA7BDA751A7C1A7654
:100A10005A7C5A769A7C9A76DA7CDA761A4BDB7EA6
:100A20002BB30020FFF7C0FF0120FFF7C3FF184BD7
:100A300001221A701448017D427D837DC47D057EAC
:100A4000467E877EC07E04900397029601950094AF
:100A5000104803F055FEBFE7DA7BDA751A7C1A7688
:100A60005A7C5A769A7C9A76DA7CDA76D6E7012036
:100A7000FFF79AFF0020FFF79DFF054B00221A7039
:100A8000D8E700BF940400200402002000140240B4
:100A90003C040020B491000800B58BB00C4B1B89BE
:100AA000ADF80430002306930793082208920493BC
:100AB00003AB01AA04A9074804F008F810B10BB071
:100AC0005DF804FB4FF48051034804F0D4FBF6E7D3
:100AD000040200209404002000140240054B002270
:100AE0001A755A759A750121D975197659769976BC
:100AF000DA76704704020020024B00221A755A75FC
:100B00009A75704704020020024B00221A735A7330
:100B10009A737047040200200246034B03CB106017
:100B200051601046704700BF180200200A4B4FF07A
:100B300081421A60094A5A60094A9A6000221A6181
:100B40005A6100219961DA611A625A629A62DA6224
:100B50001A635A63704700BF24020020295C0F3ECD
:100B60003333733F0A4B4FF081429A63094ADA6389
:100B7000094A1A6400229A64DA64002119655A65E8
:100B80009A65DA651A665A669A66DA66704700BF31
:100B9000240200200AD7A33C3333733F30B41D4BEB
:100BA0001D4A1A671D4C5C671D4898670022C3F8F0
:100BB0008020C3F884200021C3F88810C3F88C205B
:100BC000C3F89020C3F89420C3F89820C3F89C2061
:100BD000C3F8A020C3F8A420124DC3F8A850C3F84E
:100BE000AC40C3F8B000C3F8B820C3F8BC20C3F8C9
:100BF000C010C3F8C420C3F8C820C3F8CC20C3F881
:100C0000D020C3F8D420C3F8D820C3F8DC2030BCEF
:100C1000704700BF24020020000020400AD7A33BF9
:100C200048E17A3F9A99993F30B41E4B1E4AC3F867
:100C3000E0201E4CC3F8E4401D48C3F8E800002241
:100C4000C3F8F020C3F8F4200021C3F8F810C3F86B
:100C5000FC20C3F80021C3F80421C3F80821C3F81D
:100C60000C21C3F81021C3F81421124DC3F81851F8
:100C7000C3F81C41C3F82001C3F82821C3F82C2174
:100C8000C3F83011C3F83421C3F83821C3F83C212C
:100C9000C3F84021C3F84421C3F84821C3F84C21CC
:100CA00030BC704724020020000020400AD7A33B3C
:100CB00048E17A3F9A99993F08B5FFF737FFFFF768
:100CC00051FFFFF76BFFFFF7AFFF00F00FFD08BD0F
:100CD00000234360002282600B604B608B60CB601E
:100CE0000B614B618B61704708B52DED068BB0EE43
:100CF000409A01F0C3FBB7EEC00AB7EEC9AA9FED58
:100D00001A8B3AEE488BB4EEC80BF1EE10FA08D508
:100D1000174B83ED549A83ED559A0020BDEC068B5A
:100D200008BD01F0ABFBB7EEC00A9FED0F7B3AEEBA
:100D300007ABB4EECA0BF1EE10FAE9DC01F0A4FB4C
:100D4000B7EEC00AB4EEC08BF1EE10FAE0DC01F0B1
:100D50009BFBB7EEC00AB4EEC0ABF1EE10FAD7D4ED
:100D60000120DBE7AFF300807B14AE47E17A843FDC
:100D7000240200200000000008B52DED048BB0EE29
:100D8000409A01F07BFBB7EEC00AB7EEC98A9FED2F
:100D9000107B38EE477BB4EEC70BF1EE10FA06D5A8
:100DA0000D4B83ED549A0020BDEC048B08BD01F07F
:100DB00065FBB7EEC00A9FED067B38EE078BB4EEFD
:100DC000C80BF1EE10FAEBDC0120EDE7AFF3008089
:100DD0007B14AE47E17A843F24020020000000002B
:100DE00008B52DED048BB0EE409A01F04DFBB7EE47
:100DF000C00AB7EEC98A9FED107B38EE477BB4EE90
:100E0000C70BF1EE10FA06D50D4B83ED559A002075
:100E1000BDEC048B08BD01F037FBB7EEC00A9FEDB7
:100E2000067B38EE078BB4EEC80BF1EE10FAEBDC64
:100E30000120EDE7AFF300807B14AE47E17A843FF9
:100E4000240200200000000000B52DED048B89B0C5
:100E5000B0EE408A01F01EFBB7EEC00AB7EEC89AAA
:100E60009FED1F7B39EE477BB4EEC70BF1EE10FA16
:100E70000AD51F4B83ED568A83ED578A002009B0AF
:100E8000BDEC048B5DF804FB01F004FBB7EEC00A77
:100E90009FED137B39EE077BB4EEC70BF1EE10FA32
:100EA000E7DC01F007FBB7EEC00A9FED0F7B39EEE0
:100EB000477BB4EEC70BF1EE10FADAD401F0FAFA80
:100EC000B7EEC00A9FED087B39EE079BB4EEC90B65
:100ED000F1EE10FACDDC0120D1E700BFAFF30080C6
:100EE0007B14AE47E17A943FFA7E6ABC7493883FE4
:100EF000240200200000000000B52DED048B85B019
:100F0000B0EE409A01F0C6FAB7EEC00AB7EEC98A51
:100F10009FED117B38EE477BB4EEC70BF1EE10FA74
:100F200008D50F4B83ED569A002005B0BDEC048B1D
:100F30005DF804FB01F0AEFAB7EEC00A9FED067B48
:100F400038EE078BB4EEC80BF1EE10FAE9DC0120A5
:100F5000EBE700BFAFF30080FA7E6ABC7493883F72
:100F6000240200200000000030EE600AB5EEC00A46
:100F7000F1EE10FA12DDB7EEC00A9FED0D7BB4EE74
:100F8000C70BF1EE10FA0CD49FED0B7BB4EEC70B40
:100F9000F1EE10FA08D40A4B03607047B1EE400A34
:100FA000E9E7084B03607047074B0360704700BFD9
:100FB0007B14AE47E17A943F9A9999999999A93F00
:100FC0000000C0400000A04100007041000000008F
:100FD00010B52DED028B384C94ED548A84ED048AC3
:100FE00001F04CFAF0EE400AB0EE480A2046FFF756
:100FF000BBFF94ED548A01F041FA38EE400AB5EE99
:10100000C00AF1EE10FA29DD94ED548A01F036FAA7
:1010100038EE400AB7EEC00A9FED257BB4EEC70B51
:10102000F1EE10FA24D5244800F11C011030FFF72E
:101030004FFE214BD3ED057A9FED207A67EE877A3C
:10104000FDEEE77A17EE901AC3ED067A002919DB58
:10105000002002F095FBBDEC028B10BD164B93ED0A
:10106000548A01F00BFA38EE400AB1EE400AD1E79B
:1010700001F004FA1048024600F11C01103002F0A1
:1010800011FDD6E710210E4804F0E8F840B9002120
:10109000084602F075FB9FED0B0A01F02DFADAE726
:1010A000054B9969002002F06BFBD4E7AFF3008099
:1010B0007B14AE47E17A843F240200200000A04266
:1010C000000C02400000000010B52DED028B3A4CE0
:1010D00094ED558A84ED128A01F0D6F9F0EE400ABB
:1010E000B0EE480A04F13800FFF73EFF94ED558A50
:1010F00001F0CAF938EE400AB5EEC00AF1EE10FA76
:101100002ADD94ED558A01F0BFF938EE400AB7EEBA
:10111000C00A9FED277BB4EEC70BF1EE10FA25D580
:10112000254800F154014830FFF7D2FD224BD3EDA2
:10113000137A9FED227A67EE877AFDEEE77A17EE53
:10114000901AC3ED147A00291BDB4942022002F0F9
:1011500017FBBDEC028B10BD174B93ED558A01F0C8
:1011600093F938EE400AB1EE400AD0E701F08CF96D
:10117000114800F1380200F15401483002F092FCAD
:10118000D4E740210E4804F069F840B9002102205C
:1011900002F0F6FA9FED0B0A01F0B4F9D9E7064B1D
:1011A000196D4942022002F0EBFAD2E7AFF300805A
:1011B0007B14AE47E17A843F240200200000A04265
:1011C000000C02400000000030EE600AB5EEC00ADC
:1011D000F1EE10FA1EDDB7EEC00A9FED217BB4EEF2
:1011E000C70BF1EE10FA08D5214B0360214B436089
:1011F000214B0B60214B4B6070479FED1B7BB4EE86
:10120000C70BF1EE10FA02D51D4B0360EEE71D4B44
:101210000360EBE7B5EEC00AF1EE10FA00D47047B8
:10122000B7EEC00A9FED0E7BB4EEC70BF1EE10FADD
:1012300008D5144B0360144B43604FF07F520A6093
:101240004B60ECE79FED087BB4EEC70BF1EE10FAB4
:1012500002D50E4B0360EEE70D4B0360EBE700BFDA
:101260009A9999999999D93F333333333333E33F7B
:10127000000040400AD7A33B9A99993F6F12033B65
:1012800033333340666626400AD7233C9A99194087
:10129000CDCC0C400000000010B52DED028B92B0BB
:1012A000614C94ED568A84ED208A01F0F3F8F0EE5B
:1012B000400AB0EE480A04F1A80104F17000FFF7FB
:1012C00083FF94ED568A01F0E5F838EE400AB5EE5A
:1012D000C00AF1EE10FA57DD94ED568A01F0DAF803
:1012E00038EE400AB7EEC00A9FED497BB4EEC70B5B
:1012F000F1EE10FA52D54C4800F18C018030FFF726
:10130000E7FC494B93ED217AB7EEC77A9FED426B2C
:1013100027EE067BB7EEC78B83ED2E8A01F0BAF875
:1013200078EE600AF5EEC00AF1EE10FA41DD3E4BB0
:1013300093ED2E8A01F0AEF878EE600AB7EEE07A0F
:101340009FED376BB4EEC67BF1EE10FA3BD5364815
:1013500000F1C401B830FFF7BBFC334BD3ED2F7A5B
:101360009FED327A67EE877AFDEEE77A17EE901AF4
:10137000C3ED307A002933DB4942012002F000FA44
:1013800012B0BDEC028B10BD274B93ED568A01F0D5
:1013900081F838EE400AB1EE400AA3E701F07AF88E
:1013A000214800F1700200F18C01803002F07AFBDC
:1013B000A7E71D4B93ED2E8A01F06CF878EE600ADA
:1013C000F1EE600ABAE701F065F8174800F1A802EB
:1013D00000F1C401B830B0EE600A02F0F7FABCE7E1
:1013E0002021134803F03AFF40B90021012002F008
:1013F000C7F99FED100A01F073F8C1E70A4BD3F863
:10140000C0104942012002F0BBF9B9E7AFF30080F8
:10141000FA7E6ABC7493883F9A9999999999F93F91
:101420008DEDB5A0F7C6B03E24020020000070424A
:10143000000C02400AD7233C30EE600AB5EEC00A29
:10144000F1EE10FA1EDDB7EEC00A9FED217BB4EE7F
:10145000C70BF1EE10FA08D5214B0360214B436016
:10146000214B0B60214B4B6070479FED1B7BB4EE13
:10147000C70BF1EE10FA02D51D4B0360EEE71D4BD2
:101480000360EBE7B5EEC00AF1EE10FA00D4704746
:10149000B7EEC00A9FED0E7BB4EEC70BF1EE10FA6B
:1014A00008D5154B0360154B43604FF07F520A601F
:1014B0004B60ECE79FED087BB4EEC70BF1EE10FA42
:1014C00002D50F4B0360EEE70E4B0360EBE700BF66
:1014D0009A9999999999D93F333333333333E33F09
:1014E0009A9939400AD7A33B9A99993F6F12033BC7
:1014F000CDCC2C4000002040666626400AD7233C15
:101500009A991940CDCC0C4010B52DED028B92B0BC
:10151000614C94ED578A84ED3C8A00F0CBFFF0EEED
:10152000400AB0EE480A04F58C7104F1E000FFF7C0
:1015300083FF94ED578A00F0BDFF38EE400AB5EE08
:10154000C00AF1EE10FA57DD94ED578A00F0B2FFB1
:1015500038EE400AB7EEC00A9FED497BB4EEC70BE8
:10156000F1EE10FA52D54C4800F1FC01F030FFF7D3
:10157000AFFB494B93ED3D7AB7EEC77A9FED426BD7
:1015800027EE067BB7EEC78B83ED4A8A00F092FF09
:1015900078EE600AF5EEC00AF1EE10FA41DD3E4B3E
:1015A00093ED4A8A00F086FF78EE600AB7EEE07AA3
:1015B0009FED376BB4EEC67BF1EE10FA3BD53648A3
:1015C00000F59A7100F59470FFF782FB324BD3ED72
:1015D0004B7A9FED327A67EE877AFDEEE77A17EE67
:1015E000901AC3ED4C7A002933DB032002F0C8F8CF
:1015F00012B0BDEC028B10BD274B93ED578A00F063
:1016000059FF38EE400AB1EE400AA3E700F052FF5E
:10161000214800F1E00200F1FC01F03002F042FA52
:10162000A7E71D4B93ED4A8A00F044FF78EE600A6D
:10163000F1EE600ABAE700F03DFF174800F58C7242
:1016400000F59A7100F59470B0EE600A02F0BEF9F0
:10165000BCE78021124803F001FE40B900210320BD
:1016600002F08EF89FED0F0A00F040FFC0E70A4B32
:10167000D3F83011032002F083F8B9E7AFF300800C
:10168000FA7E6ABC7493883F9A9999999999F93F1F
:101690008DEDB5A0F7C6B03E2402002000007042D8
:1016A000000C02400000000008B5FFF791FCFFF7B6
:1016B0000BFDFFF7F1FDFFF727FF08BD014B83EDA1
:1016C000540A704724020020014B83ED550A7047ED
:1016D00024020020014B83ED560A704724020020AB
:1016E000014B83ED570A704724020020124B134A26
:1016F0001A60134A5A60134A9A6000221A615A61AA
:1017000000219961DA611A625A629A62DA621A6396
:101710005A630D4898630D48D86318640C485864A0
:101720009A64DA6419655A659A65DA651A665A66C2
:101730009A66DA66704700BF840300200AD7233E0A
:10174000A69B443B48E17A3F9A99593FCDCC4C3D0A
:10175000CDCCCC3C0000000008B52DED048BB0EEE4
:10176000409A00F0B7FEB7EEC00AB7EEC98A9FED07
:10177000107B38EE477BB4EEC70BF1EE10FA06D5BE
:101780000D4B83ED1C9A0020BDEC048B08BD00F0CE
:10179000A1FEB7EEC00A9FED067B38EE078BB4EED4
:1017A000C80BF1EE10FAEBDC0120EDE7AFF300809F
:1017B000555555551857B63F8403002000000000CA
:1017C00008B52DED028B324B93ED1C8A83ED048A14
:1017D00000F080FE38EE400AB5EEC00AF1EE10FAD5
:1017E00030DD2B4B93ED1C8A00F074FE38EE400A7E
:1017F000B7EEC00A9FED247BB4EEC70BF1EE10FAF2
:101800002AD5234800F11C011030FFF761FA204B64
:10181000D3ED047AF5EE407AF1EE10FA26D01C4BA7
:10182000D3ED057A9FED1B7A67EE877AFDEEE77AB6
:10183000C3ED067A164B9969052001F0A1FFBDECB6
:10184000028B08BD124B93ED1C8A00F043FE38EE6C
:10185000400AB1EE400ACBE700F03CFE0C480246DD
:1018600000F11C01103002F01DF9D0E7D3ED057A2C
:101870009FED097A67EE877AFDEEE77AC3ED067A87
:10188000D8E700BFAFF30080555555551857B63F00
:10189000840300200000A0420000704210B5184CE4
:1018A000236FA36400F016FE04F1380204F1540122
:1018B00004F1480002F054F9D4ED127AF5EE407AC2
:1018C000F1EE10FA10D00E4BD3ED137A9FED0D7A96
:1018D00067EE877AFDEEE77AC3ED147A084B196D4F
:1018E000052001F04DFF10BDD4ED137A9FED057A70
:1018F00067EE877AFDEEE77AC4ED147AEEE700BF73
:101900008403002000007042014B83ED1C0A7047E5
:101910008403002000B589B06846FFF7FDF89DF804
:1019200003302BB94F4A92F87430013382F8743087
:1019300002A8FFF7F1F89DF80C302BB9494A92F84C
:101940007430013382F8743004A8FFF7E5F89DF88D
:1019500015302BB9434A92F87430013382F8743051
:1019600006A8FFF7D9F89DF81E302BB93D4A92F82A
:101970007430013382F874303A4B93F87430042B8E
:1019800011D8DFE803F00717214064002021364812
:1019900003F071FC9FED350AFFF756FA0028F5D0E9
:1019A000334B01221A7009B05DF804FB20212E4848
:1019B00003F061FC9FED2F0AFFF746FA0028F5D0EF
:1019C0002B4B01221A70EEE72B4B1B7823B113E04F
:1019D0002021254803F04FFC9FED280AFFF734FA39
:1019E0000028F5D00123224A1370254A1370DAE744
:1019F00020211D4803F03FFC9FED220AFFF724FA47
:101A00000028F5D0CFE71C4B1B7823B114E0202130
:101A1000154803F030FC9FED1C0AFFF715FA00286B
:101A2000F5D0134B01221A70154B02221A70BAE737
:101A300020210D4803F01FFC9FED140AFFF704FA64
:101A40000028F5D0AFE72021074803F014FC9FEDF4
:101A5000100AFFF7F9F90028F5D0054B01221A709A
:101A6000A1E700BF8403002000080240D34D823F5D
:101A700092040020AE47613F3C04002052B83E3F34
:101A80009304002014AE473F48E1FA3E14AE073FEE
:101A9000A470BD3E00B587B06846FFF73DF89DF8DD
:101AA00004302BB94B4A92F87430013382F8743009
:101AB00002A8FFF731F89DF80D302BB9454A92F88E
:101AC0007430013382F8743004A8FFF725F89DF8CC
:101AD00016302BB93F4A92F87430013382F87430D3
:101AE0003C4B93F87430032B70D8DFE803F00222EC
:101AF0004266394B1B7823B111E02021374803F0AF
:101B0000BAFB9FED370AFFF79FF90028F5D0354B58
:101B100000221A705AE02021304803F0ACFB9FED00
:101B2000320AFFF791F90028F5D02E4B01221A70E6
:101B30004CE0294B1B7823B114E02021274803F007
:101B40009AFB9FED2A0AFFF77FF90028F5D0284B72
:101B500001221A70234B00221A7037E020211F48FF
:101B600003F089FB9FED230AFFF76EF90028F5D0FB
:101B70002CE0194B1B7823B114E02021174803F007
:101B80007AFB9FED1D0AFFF75FF90028F5D0184B8F
:101B900002221A70134B00221A7017E020210F48FE
:101BA00003F069FB9FED150AFFF74EF90028F5D009
:101BB0000CE02021094803F05EFB9FED110AFFF7BE
:101BC00043F90028F5D0074B01221A7007B05DF8E1
:101BD00004FB00BF840300203C04002000080240F6
:101BE000D7A3803F92040020AE47613F52B83E3FEA
:101BF0009304002014AE473F48E1FA3E14AE073F7D
:101C0000A470BD3E00B585B06846FEF785FF9DF81F
:101C100005302BB9364A92F87430013382F87430AB
:101C200002A8FEF779FF9DF80E302BB9304A92F8E2
:101C30007430013382F874302D4B93F87430012BDB
:101C400025D023B1022B48D005B05DF804FB294B09
:101C50001B7823B114E02021274803F00CFB9FEDF3
:101C6000270AFFF7F1F80028F5D0254B01221A705A
:101C7000244B00221A70E7E720211F4803F0FBFAEB
:101C80009FED210AFFF7E0F80028F5D0DCE7194BBB
:101C90001B7833B1022BD7D114E02021164803F072
:101CA000EAFA9FED1A0AFFF7CFF80028F5D0144B97
:101CB00002221A70134B00221A70C5E720210E4829
:101CC00003F0D9FA9FED120AFFF7BEF80028F5D00D
:101CD000BAE72021084803F0CEFA9FED0E0AFFF77D
:101CE000B3F80028F5D0074B01221A70ACE700BF0B
:101CF000840300203C0400200008024052B83E3F0C
:101D0000930400209204002014AE473F48E1FA3EBD
:101D100014AE073FA470BD3E024B002283F874202E
:101D2000704700BF8403002000B585B0254B1B78A9
:101D300023B1012B1AD005B05DF804FB1E21002051
:101D400001F01EFD6FF01D01022001F019FD684633
:101D500000F07EFA9DF8003013F0040FF7D11A4816
:101D600002F0CEFC174B01221A70E4E7102117484D
:101D700003F074FAD8B90021084601F001FD4021B2
:101D8000124803F06BFAC0B90021022001F0F8FC00
:101D900002A800F05DFA9DF8083013F0040FF7D1A7
:101DA0000B4802F0ADFC074B00221A70C3E76FF03E
:101DB0001D01002001F0E4FCE1E71E21022001F0FA
:101DC000DFFCE5E7BD04002004920008000C02409F
:101DD0001092000810B584B01A4B1B781BB1012B70
:101DE00018D004B010BD184C01220421204603F085
:101DF0003CFA01220821204603F037FA684600F039
:101E000027FA9DF8013013F0100FF7D10D4B012286
:101E10001A70E6E70C4C00220421204603F025FA54
:101E200000220821204603F020FA02A800F010FA50
:101E30009DF8093013F0100FF7D1024B00221A70F1
:101E4000CFE700BFBE0400200014024010B586B0EA
:101E5000464C00224FF40041204603F006FA0022CF
:101E60004FF40051204603F000FA00224FF4804165
:101E7000204603F0FAF900224FF48051204603F087
:101E8000F4F93B4B1B7863B1012B11D0022B16D018
:101E9000374B1B78D3B1012B33D0022B4BD006B07C
:101EA00010BD01224FF40041204603F0DEF9EFE7B8
:101EB00001224FF400512D4803F0D7F9E8E7012241
:101EC0004FF48041294803F0D0F9E1E70020FEF704
:101ED0006BFD0120FEF76EFD684600F0B9F99DF834
:101EE000013013F0020FF7D1224802F009FC204B19
:101EF00001221A7000224FF400411C4803F0B5F98A
:101F0000CDE70120FEF750FD0020FEF753FD02A8AB
:101F100000F09EF99DF8093013F0020FF7D1164832
:101F200002F0EEFB0022124B1A704FF400510F48E2
:101F300003F09BF9B3E70120FEF736FD0020FEF722
:101F400039FD04A800F084F99DF8113013F0020F58
:101F5000F7D1094802F0D4FB0022054B1A704FF468
:101F60008041024803F081F999E700BF0010024068
:101F70003C0400203C9200084C92000800B583B05D
:101F8000684600F065F99DF8003013F0080FF7D1AE
:101F90000A4A92F875300133DBB282F87530052BAE
:101FA00003D91346012283F87520044B93F875106A
:101FB000034802F0A5FB03B05DF804FB8403002096
:101FC0005C920008024B002283F87520704700BF26
:101FD0008403002008B5FEF797FDFEF78DFDFFF79F
:101FE000F1FFFFF799FE08BD014B93F875007047AC
:101FF0008403002008B5134B93F87630C3B102F088
:10200000DDFBC3B20F4A92F878209B1ADBB2192B82
:1020100013D80C4A92F87C30013382F87C30094B9B
:102020009867084A92F87630013382F8763008BD16
:1020300002F0C4FB034B9867F3E7024B002283F8DE
:102040007C20ECE784030020014B93F87C00704770
:102050008403002000B585B0684600F0F9F89DF8CB
:10206000013013F0200F0BD102A800F0F1F89DF918
:102070000930002B0BDB0021072001F081FB03E07E
:102080003221072001F07CFB05B05DF804FB6FF006
:102090003101072001F074FBF6E7000010B588B0AD
:1020A000574B1B7863B1012B13D0564B93F87D30FF
:1020B000013B042B40D8DFE803F02C4B5F73870013
:1020C0006846FEF729FD9DF801204E4B83F87D20E0
:1020D000EBE702A8FEF720FD9DF809304BB9FFF7AA
:1020E00083FF0028E1D00528DFD8464A82F87D002A
:1020F000DBE704A8FEF710FD9DF81130052BEED8A4
:1021000006A8FEF709FD9DF819203E4B83F87D20B7
:10211000CBE73D4C00224FF40041204603F0A5F8E8
:1021200000224FF40051204603F09FF801224FF4A3
:102130008041204603F099F8314B1B78002B57D093
:1021400001224FF48051304803F08FF808B010BDE1
:102150002D4C00224FF40041204603F086F8012266
:102160004FF40051204603F080F801224FF48041E3
:10217000204603F07AF8DFE7234C00224FF40041B9
:10218000204603F072F801224FF40051204603F07C
:102190006CF800224FF48041204603F066F8CBE74C
:1021A000194C01224FF40041204603F05EF8012251
:1021B0004FF40051204603F058F800224FF48041BC
:1021C000204603F052F8B7E70F4C01224FF40041CC
:1021D000204603F04AF800224FF40051204603F055
:1021E00044F800224FF48041204603F03EF8A3E774
:1021F00000224FF48051044803F037F8A6E700BFEF
:102200003C040020840300200010024000B58BB085
:1022100008AB01AA00210B4802F0CDFC28B10A4B03
:1022200001229A710BB05DF804FB4FF4005107488E
:1022300003F021F8044B0AAA12E903001860998000
:10224000EDE700BF40040020040400200014024019
:102250000346034A1068186092889A8018467047AF
:10226000040400202DE9F041DFF860803C21404665
:1022700004F080FB114F3C21384604F07BFB104EEC
:102280003C21304604F076FB0E4D3C21284604F0FC
:1022900071FB0D4C3C21204604F06CFBD8F800206B
:1022A00047F6FF7353623A685362326853622A6892
:1022B000536222685362BDE8F08100BF88060020A7
:1022C000C0040020A40500200C05002020070020E9
:1022D000034B1A68506A47F6FF735362181A704727
:1022E00020070020044B1B685A6A47F6FF715962A9
:1022F00002481044704700BF880600200180FFFF9D
:10230000044B1B685A6A47F6FF7159620248104431
:10231000704700BFC00400200180FFFF034B1A6814
:10232000506A47F6FF735362181A7047A4050020DD
:10233000034B1A68506A47F6FF735362181A7047C6
:102340000C0500200000000010B52DED048BFFF7F8
:10235000C9FF07EE900AB8EEE77B9FED3D9B27EEA5
:10236000097BB7EEC77BB7EEC77A9FED3B8B87EE55
:10237000086BB7EEC66B404C84ED016AB7EEC66AD7
:1023800094ED007AB7EEC77A06EE087BB7EEC77B0E
:1023900084ED007AFFF7C2FF07EE900AB8EEE77B04
:1023A00027EE097BB7EEC77BB7EEC77A87EE086BDF
:1023B000B7EEC66B84ED036AB7EEC66A94ED027A97
:1023C000B7EEC77A06EE087BB7EEC77B84ED027ADC
:1023D000FFF77EFF07EE900AB8EEE76AB7EEC66A2F
:1023E0009FED1F8B94ED047AB7EEC77A06EE087B5B
:1023F000B7EEC77B84ED047AFFF782FF07EE900A01
:10240000B8EEE76AB7EEC66A94ED057AB7EEC77A1A
:1024100006EE087BB7EEC77B84ED057AFFF788FFF1
:1024200007EE900AB8EEE77B9FED0F6B27EE067B79
:102430009FED0F6B27EE067BB7EEC77BD4ED067AD8
:1024400037EE877A84ED067ABDEC048B10BD00BFB1
:102450007FE36B57FF41F93E9A9999999999993F72
:10246000B81E852B7455F93E000000000000303F77
:10247000F1D4C853FB2119400C040020014B93ED0B
:10248000040A70470C040020014B93ED050A7047C5
:102490000C04002084B0064B93E8030004AB03E96E
:1024A00003009DED020ADDED030A04B0704700BF92
:1024B0000C04002084B0064B93E8030004AB03E94E
:1024C00003009DED020ADDED030A04B0704700BF72
:1024D00014040020014B93ED060A70470C04002001
:1024E000014B83ED000A70470C040020014B83ED83
:1024F000020A70470C040020014B83ED040A704768
:102500000C040020014B83ED050A70470C040020E9
:10251000014B83ED060A70470C0400202DE9F04FB3
:102520008FB0002409940A940B940C940D946A4B78
:102530001A6B42F010021A631A6B02F01002019239
:10254000019A1A6B42F004021A631A6B02F0040239
:102550000292029A1A6B42F020021A631A6B02F07E
:1025600020020392039A1A6B42F080021A631A6BDC
:1025700002F080020492049A1A6B42F001021A637C
:102580001A6B02F001020592059A1A6B42F00202E0
:102590001A631A6B02F002020692069A1A6B42F054
:1025A00040021A631A6B02F040020792079A1A6BF4
:1025B00042F008021A631B6B03F008030893089BA0
:1025C000DFF824B122464EF23F01584602F04DFE9C
:1025D000DFF81881224647F63D01404602F045FEED
:1025E000DFF80CA12246D021504602F03EFEDFF873
:1025F000049122460721484602F037FE374F224613
:102600004FF47041384602F030FE354E224640F617
:102610000F71304602F029FE4EF23F030993012567
:102620000A950B940C9409A9584602F023FD47F62D
:102630003D0309930A950B940C9409A9404602F0B6
:1026400019FDD02309930A950B940C9409A95046BF
:1026500002F010FD072309930A950B940C9409A925
:10266000484602F007FD4FF4004309930A940B9487
:1026700009A9404602F0FEFC47F6036309930A9459
:102680000B9409A9174802F0F5FC802309930A94DA
:102690000B9409A9384602F0EDFC4FF470430993FE
:1026A0000A950B940C9409A9384602F0E3FC40F615
:1026B0000F7309930A950B940C9409A9304602F004
:1026C000D9FCF02309930A940B9409A9304602F02F
:1026D000D1FC0FB0BDE8F08F00380240001002407E
:1026E000000C0240001802400008024000140240A2
:1026F000000002400004024038B5FEF731F9FFF750
:10270000B1FD00F0EBFFFEF7D7FA254C00220421C3
:10271000204602F0AAFD00220821204602F0A5FD75
:10272000A4F5806400224FF40041204602F09DFD94
:1027300000224FF40051204602F097FD00224FF492
:102740008041204602F091FD00224FF48051204646
:1027500002F08BFD0024134B1C70134B1C70134BA9
:102760001C70134B1C700125124B1D70124B1C70FA
:10277000124B1D70124B1C70124B1C705C70FEF7DC
:10278000ADF9FFF7C9FA2846FEF70EF92046FEF725
:1027900011F90D4803F004FD0C4803F001FD38BDAC
:1027A00000140240BC040020BD040020900400205E
:1027B000BE040020910400203C040020920400206C
:1027C00093040020280400203C0600200408002078
:1027D00010B584B00446304B984204D02F4B9C4235
:1027E00055D004B010BDFFF7AFFDFEF7E9F868461D
:1027F000FFF72EFD9DF8003013F0100F07D102A84F
:10280000FFF726FD9DF8093013F0010F30D0FFF7D8
:10281000F1FBFFF719FC052804D8FFF71BFCFFF7B5
:102820003DFCDBE70021084600F0AAFF0021012063
:1028300000F0A6FF0021022000F0A2FF00210320EB
:1028400000F09EFF0021042000F09AFF00210520E7
:1028500000F096FF0021062000F092FF00210720E3
:1028600000F08EFF0E4B00225A7002F0DBFBD4E723
:102870000B4B5B78002BD0D0FEF716FF084B9B78F4
:1028800013B1FFF70BF8C8E7FEF79AFFC5E7FFF7AC
:10289000BDFCFEF701F9A4E73C0600200408002077
:1028A0002804002072B6FEE700B5B9B0342200213A
:1028B0002BA804F08DFC00212691279128912991C5
:1028C0002A91902202A804F083FC284B1A6C42F053
:1028D00080521A641B6C03F080530093009B244BBE
:1028E0001A6842F440421A601B6803F440430193A3
:1028F000019B01232B934FF480332C9302233193BC
:102900004FF48002329204223392D82234923593CB
:10291000369337932BA802F0F5FCF0B902F0B4FC23
:10292000E8B90F23269302232793002328934FF41B
:10293000A05329934FF480532A93072126A802F02D
:102940006FFF70B9402302930023139302A803F092
:1029500041F840B939B05DF804FBFFF7A3FFFFF77A
:10296000A1FFFFF79FFFFFF79DFF00BF0038024068
:10297000007000400000000000B5B9B001F006FF93
:10298000FFF792FFFFF7CAFDFDF732FE01F096FA5E
:1029900001F064FE01F0C8F901F0FAF901F02AFA39
:1029A00001F014FD01F0DEFAFDF742FE01F054FAE9
:1029B00001F068FD01F0A2FDFDF75AFE01F0DAFD1D
:1029C00001F012FE01F0A4FAFFF796FE90E26846CD
:1029D000FFF73EFC9DF8003013F0020F00F07F82FD
:1029E00001222021C84802F040FCC84C01221146B7
:1029F000204602F03AFC01220221204602F035FC7A
:102A000001220421204602F030FCC14B01221A7041
:102A100065E22821062000F0B3FE4FF40061BD48B6
:102A200002F01CFC0128F4D04FF40061B94802F018
:102A300015FC48B90021062000F0A2FE04E06FF06A
:102A40000E01052000F09CFE4FF40071B14802F029
:102A500005FC0028F3D04FF40071AE4802F0FEFBF5
:102A6000012800F0B7801021AB4802F0F7FB0128E5
:102A700000F0B5801021A84802F0F0FB002800F01B
:102A8000B4802021A44802F0E9FB012800F0BA80BC
:102A90002021A14802F0E2FB002800F0B78040218D
:102AA0009D4802F0DBFB012800F0BD8040219A48E0
:102AB00002F0D4FB002800F0BB808021964802F091
:102AC000CDFB012800F0C1808021934802F0C6FBB5
:102AD000002800F0C08010218F4802F0BFFB0028C2
:102AE00040F0FD8120218C4802F0B8FB002840F026
:102AF000F6814021884802F0B1FB002840F0EF81C8
:102B00008021854802F0AAFB002840F0E8810022DD
:102B1000202100F1804000F5023002F0A6FB7B4C42
:102B200000220121204602F0A0FB002202212046C3
:102B300002F09BFB00220421204602F096FB0021BC
:102B4000084600F01DFE0021012000F019FE0021C2
:102B5000022000F015FE0021032000F011FE0021EC
:102B6000062000F00DFEC82001F02EFE9FED6B0A3E
:102B7000FFF7B6FC9FED6A8AB0EE480AFFF7B6FC95
:102B8000B0EE480AFFF7B8FCB0EE480AFFF7BAFC0F
:102B9000B0EE480AFFF7BCFCB0EE480AFEF78EFD27
:102BA000B0EE480AFEF790FDB0EE480AFEF792FD3F
:102BB000B0EE480AFEF794FDB0EE480AFEF7A4FE18
:102BC000584B01225A70C82001F0FEFD504B0222E2
:102BD0001A7084E10021052000F0D2FD43E76FF078
:102BE0002201002000F0CCFD4BE70022202100F163
:102BF000804000F5023002F038FB0021084600F06A
:102C0000BFFD3EE7112100F0BBFD48E70022012196
:102C100000F1804000F5013002F027FB0021012087
:102C200000F0AEFD3BE71E21022000F0A9FD44E7C5
:102C30000022022100F1804000F5013002F015FB76
:102C40000021022000F09CFD37E76FF01001032007
:102C500000F096FD3FE70022042100F1804000F5DE
:102C6000013002F002FB0021032000F089FD32E771
:102C700002A8FFF7EDFA9DF8083013F0020F00F0FC
:102C80008680FFF7FBFBFEF719FDFFF7FDFBFEF764
:102C90001BFD244B01225A70234B1B78002B47D17C
:102CA000224B1B7893B1012B18D01E4B1B78013B94
:102CB000DBB2042B00F2138108A8FDF72DFF9DF86D
:102CC0002030BBB9124B04221A7008E104A8FDF7AA
:102CD00023FF9DF81120134B1A70E6E706A8FDF7B5
:102CE0001BFF9DF81A200F4B1A70DEE701210748E1
:102CF00002F0C1FA9FED0A0AFDF7F6FF0028F5D0B1
:102D0000034B03221A70EAE000080240000402406C
:102D1000BC04002000180240000C02400AD7233CEB
:102D200000000000280400203C0400209004002043
:102D3000012B40F0D4800AA8FDF7EEFE9DF8293063
:102D400033B10CA8FDF7E8FE9DF83130052B0DD905
:102D5000FFF74AF990B9B34B1B78013BDBB2042B68
:102D600000F2BD80B04B04221A70B8E00EA8FDF747
:102D7000D3FE9DF83920AB4B1A70ECE7FFF734F91E
:102D80000528E8D8FFF730F9A64B1870E3E710A83C
:102D9000FFF75EFA9DF8403013F0010F03D0A24B0D
:102DA0000A221A709BE012A8FFF752FA9DF84830E9
:102DB00013F0080F02D0FFF7E1F890E014A8FFF736
:102DC00047FA9DF8503013F0040F05D0954B0022C0
:102DD0005A70FEF7A9FF82E016A8FFF739FA9DF8AE
:102DE000593013F0020F7AD0FFF730F877E08D4BAF
:102DF0001B78013B042B3ED8DFE803F0030D1721BD
:102E00002B009FED8A0AFEF777F8A0BB20218848A7
:102E100002F031FAF5E79FED870AFEF76DF850BB37
:102E20002021834802F027FAF5E79FED830AFEF799
:102E300063F800BB20217E4802F01DFAF5E79FED04
:102E40007F0AFEF759F8B0B92021794802F013FA49
:102E5000F5E79FED7B0AFEF74FF860B92021744833
:102E600002F009FAF5E70121764802F004FA32216E
:102E7000072000F085FC9FED740AFDF77DFF002818
:102E8000F1D0684B1B78012B0FD103E0202168485B
:102E900002F0F1F99FED6D0AFEF72EF80028F5D04B
:102EA00003E00121674802F0E6F99FED690AFDF7AA
:102EB00063FF0028F5D04FF4966001F085FC03E035
:102EC00020215B4802F0D7F99FED610AFEF714F864
:102ED0000028F5D0FFF77EF8534B02221A7036A86F
:102EE000FFF7B6F99DF8D93013F0100F40F0D183F9
:102EF0004D4B1B780B2BF2D801A252F823F000BFE8
:102F0000CF2900081B2A0008712C0008EF2D0008AB
:102F1000312F00080F300008A5320008ED320008FC
:102F20003B340008A9340008F3340008DF350008FA
:102F30003C4B1B78013B042B16D8DFE803F0031C45
:102F40002F4255009FED430AFDF716FF9FED420A01
:102F5000FDF746FF20B901213A4802F08CF9F5E768
:102F60009FED3E0AFDF73CFF642001F02DFC2E4B47
:102F700005221A70B3E79FED3A0AFDF731FF9FED86
:102F8000390AFDF7F9FE20B901212E4802F073F944
:102F9000F5E79FED2D0AFDF7EFFEE5E79FED320A1D
:102FA000FDF71EFF9FED310AFDF7E6FE20B9012176
:102FB000244802F060F9F5E79FED2D0AFDF7DCFEED
:102FC000D2E79FED2C0AFDF70BFF9FED2B0AFDF7D3
:102FD000D3FE20B901211B4802F04DF9F5E79FED22
:102FE0001B0AFDF7C9FEBFE79FED240AFDF7F8FEB7
:102FF0009FED230AFDF7C0FE20B90121114802F020
:103000003AF9F5E79FED1F0AFDF7B6FEACE7054B71
:103010001B78013B042B39D8DFE803F0364B4E51C7
:10302000710000BF28040020BC0400200C022B3ECD
:1030300000080240EC51383EB81E853E295C8F3EA8
:103040005C8FC23E00040240CDCCCC3E8FC2753EA8
:1030500000000000E17A943E0AD7A33E3333B33E2A
:103060008FC2F53D48E1BA3EE17A143E713D8A3E99
:1030700052B89E3EEC51B83D7B142E3ECDCCCC3D9B
:10308000AE47E13D9A99193EFEF744FCB34B1B78DD
:10309000002B40F0C680B24B1B78012B4CD0022B8A
:1030A00050D0B04B1B78002B66D1AF4B06221A7064
:1030B00015E7FEF7EFFCE9E7FEF7A4FDE6E7A74B0F
:1030C0001B7823B114E02021A84802F0D4F89FED2A
:1030D000A80AFDF7B9FE0028F5D0A24B00221A700D
:1030E0009F4B02221A70D1E72021A04802F0C3F8BA
:1030F0009FEDA00AFDF7A8FE0028F5D0C6E7974B84
:103100001B7823B111E02021984802F0B4F89FED1C
:103110009A0AFDF799FE0028F5D0924B01221A7009
:10312000B4E72021914802F0A6F89FED930AFDF73D
:103130008BFE0028F5D0A9E7002204218F4802F079
:1031400094F8AEE7002208218C4802F08EF8A8E738
:10315000854B07221A70C2E61AA8FFF779F89DF886
:10316000683013F0040F26D09FED850AFDF738FE76
:103170009FED840AFDF700FE18A8FFF769F89DF897
:10318000603013F0020FE3D17F4B1B78012BE3D0AB
:10319000022BF1D11EA8FFF75BF89DF8783013F0F1
:1031A000040F19D09FED790AFDF71AFE9FED780AFA
:1031B000FDF7E2FDE0E71CA8FFF74AF89DF8703044
:1031C00013F0010FD8D09FED6E0AFDF7D5FD9FEDEE
:1031D0006D0AFDF705FECFE720A8FFF739F89DF847
:1031E000803013F0010FC7D09FED650AFDF7C4FDD5
:1031F0009FED680AFDF7F4FDBEE75B4B07221A70EE
:103200006DE624A8FFF724F89DF8903013F0040F22
:1032100026D09FED5B0AFDF7E3FD9FED5A0AFDF70F
:10322000ABFD22A8FFF714F89DF8883013F0020FC9
:10323000E3D1554B1B78012BE3D0022BF1D128A809
:10324000FFF706F89DF8A03013F0040F19D09FED9A
:103250004F0AFDF7C5FD9FED4E0AFDF78DFDE0E736
:1032600026A8FEF7F5FF9DF8983013F0010FD8D08F
:103270009FED430AFDF780FD9FED420AFDF7B0FD8B
:10328000CFE72AA8FEF7E4FF9DF8A83013F0010F5E
:10329000C7D09FED3B0AFDF76FFD9FED3E0AFDF79E
:1032A0009FFDBEE7384B00229A701B78042B0FD18C
:1032B00003E00221384801F0DEFF9FED380AFEF7F7
:1032C0004BFA0028F5D009E00221334801F0D3FF82
:1032D000B0EE000AFEF740FA0028F5D0224B072294
:1032E0001A70FCE501212C4801F0C5FF9FED2C0A66
:1032F000FDF7FAFC0028F5D0184B1B7853B9224B88
:103300001B78052B1BD0174A12781AB9023BDBB287
:10331000012B19D9114B1B78002B7DD1114B1B7838
:10332000002B51D10E4B1B78012B3BD0022B42D0EE
:103330000D4B08221A70142001F046FACFE59FEDDC
:10334000110AFDF781FDE5E7054B1B78022BE1D063
:103350009FED130AFDF778FDDCE700BF3C04002079
:103360009304002092040020BC04002000080240C6
:1033700048E1FA3E14AE073FA470BD3E001402407F
:10338000AE47E13EAE47613E28040020295C8F3EF7
:10339000713D8A3E295C0F3E00040240666606408D
:1033A0000000000001220421BF4801F05EFF282038
:1033B00001F00AFABCE701220821BB4801F055FFE1
:1033C000502001F001FAB3E7B84B1B78052B0BD066
:1033D00030A8FEF73DFF9DF8C03013F0020FF7D084
:1033E000B34B09221A707AE52CA8FEF731FF9DF83D
:1033F000B03013F0040F0BD12EA8FEF729FF9DF873
:10340000B83013F0010FEFD0A94B0A221A7066E50D
:10341000A74B09221A7062E5013BDBB2012B3FF694
:103420005EAD32A8FEF714FF9DF8C83013F0020F0E
:10343000F7D09F4B09221A7051E59E4C00224FF4A1
:103440000041204601F011FF00224FF400512046B8
:1034500001F00BFF00224FF48041204601F005FFF0
:10346000924B00229A709FED940AFEF775F94FF483
:10347000C87001F0A9F9914B1B78022B0BD0FEF715
:10348000A9FD8E4B00221A708D4B01221A70884BB9
:1034900002221A7023E59FED8B0AFDF7D5FCEEE7BB
:1034A0002021894801F0E7FE9FED860AFDF7CCFC5C
:1034B0000028F5D07F4C00224FF40041204601F057
:1034C000D4FE00224FF40051204601F0CEFE00222F
:1034D0004FF48041204601F0C8FEFEF77BFD774B9C
:1034E00000221A70764B01221A70714B02221A7058
:1034F000F5E46E4B00229A709FED748AB0EE480A94
:10350000FEF72AF9B0EE480AFEF726F9A8B3664C92
:1035100000220421204601F0A8FE002208212046B6
:1035200001F0A3FE4FF48061694801F097FE012885
:103530001DD04FF48061664801F090FE00287FF4B2
:10354000CEAC0021062000F01BF9574C00220421CC
:10355000204601F08AFE00220821204601F085FE67
:10356000962001F031F9524B0B221A70B7E46FF03C
:103570004501062000F004F9B1E4FEF7ABFFB7EE19
:10358000C00A9FED457BB4EEC70BF1EE10FA7FF752
:10359000A6ACFEF79FFFB7EEC00A9FED417BB4EEED
:1035A000C70BF1EE10FA7FF59AAC4FF480614848F2
:1035B00001F054FE01280CD04FF48061444801F022
:1035C0004DFE00287FF48BAC0021062000F0D8F8D7
:1035D00085E46FF04501062000F0D2F87FE4334B1C
:1035E00001229A7003E002213A4801F044FEB6EE4F
:1035F000000AFEF7B1F80028F5D02C4B00229A7093
:1036000003E00221334801F036FE9FED330AFEF756
:10361000A3F80028F5D003E03221062000F0B0F82E
:103620004FF400612A4801F019FE0128F4D04FF44C
:103630000061274801F012FE30B334A8FEF708FEFF
:103640009DF8D03013F0020FF7D01A4C00224FF43F
:103650000041204601F009FE00224FF400512046AF
:1036600001F003FE00224FF48041204601F0FDFDF1
:10367000FEF7B0FC114B00221A70114B01221A7098
:103680000B4B09221A702AE40021062000F078F87A
:10369000D3E7FEF79FFB2BE4666666666666F63F39
:1036A000333333333333FB3F00140240280400200C
:1036B000BC040020001002401F856B3E93040020D4
:1036C0009204002000000000000802409A99F93F8F
:1036D0000018024000040240CDCC4C3D10B5124C05
:1036E0000021204603F098F80421204603F094F8C6
:1036F0000821204603F090F80C21204603F08CF8B6
:103700000A4C0021204603F087F80421204603F0EC
:1037100083F8074C0021204603F07EF80421204660
:1037200003F07AF810BD00BF58050020B80700204C
:10373000D406002038B514461D46049B73B1012BF6
:1037400015D0B3F1FF3F00D038BD002201F08DFD50
:1037500001222946204601F088FDF5E7012201F00B
:1037600084FD01222946204601F07FFDECE701227D
:1037700001F07BFD00222946204601F076FDE3E7BB
:1037800000B52DED028B83B00B1E11DB08EE103A55
:10379000012318EE102A5F2A10DC02B90223072841
:1037A00000F2EC80DFE800F00F2D47617B97B3CF8C
:1037B0005B4208EE103A4FF0FF33EAE7002108467B
:1037C000FFF7DEFFFAE77A48009302230246012161
:1037D000FFF7B0FFB8EEC87AB7EEC77A9FED705B1F
:1037E00087EE056B9FED707B26EE077BBDEEC77BFA
:1037F000704B1B6883ED0D7A03B0BDEC028B5DF856
:1038000004FB6B480093082302460421FFF792FF54
:10381000B8EEC87AB7EEC77A9FED615B87EE056BAD
:103820009FED617B26EE077BBDEEC77B614B1B687E
:1038300083ED0E7AE0E760480093402302461021B2
:10384000FFF778FFB8EEC87AB7EEC77A9FED545B02
:1038500087EE056B9FED547B26EE077BBDEEC77BA5
:10386000544B1B6883ED0F7AC6E700931023504A30
:1038700080215148FFF75EFFB8EEC87AB7EEC77AED
:103880009FED475B87EE056B9FED477B26EE077B41
:10389000BDEEC77B474B1B6883ED107AACE747480A
:1038A00000934FF4007302464FF48071FFF742FF1C
:1038B000B8EEC87AB7EEC77A9FED395B87EE056B35
:1038C0009FED397B26EE077BBDEEC77B3C4B1B682B
:1038D00083ED0D7A90E7394800934FF40063024678
:1038E0004FF48061FFF726FFB8EEC87AB7EEC77ACB
:1038F0009FED2B5B87EE056B9FED2B7B26EE077B09
:10390000BDEEC77B2E4B1B6883ED0E7A74E728480B
:1039100000934FF4804302464FF40051FFF70AFF33
:10392000B8EEC87AB7EEC77A9FED1D5B87EE056BE0
:103930009FED1D7B26EE077BBDEEC77B214B1B68F1
:1039400083ED0D7A58E7009301231F4A4FF400419D
:103950001748FFF7EFFEB8EEC87AB7EEC77A9FEDCB
:10396000105B87EE056B9FED107B26EE077BBDEEAF
:10397000C77B144B1B6883ED0E7A3DE70D4B1A682D
:10398000002353639363D36313640E4A1268536333
:1039900093630B4A1268536393632DE7AFF3008080
:1039A00000000000000059400000000000DC9040D2
:1039B000000802405805002000000240000C0240B0
:1039C000B8070020D406002000140240D0ED007A91
:1039D00037EEC00A81ED020AD2ED006AD1ED013A5C
:1039E00070EE637A66EEA76A92ED016A20EE066ACF
:1039F00092ED025A91ED057A25EE077AB7EEC77A75
:103A0000B7EEC55AB7EE002B32EE452BB7EEC05AD3
:103A1000B7EEE34A34EE044B35EE445B91ED004AD9
:103A2000B7EEC44A35EE045B02EE057BB7EEC77B0A
:103A3000C1ED003A81ED010AD1ED037A76EE866A96
:103A400076EE876A77EEA67AC1ED047AC1ED037A45
:103A500081ED057AF5EEC07AF1EE10FA14DDB7EEDD
:103A6000007AF4EEC77AF1EE10FACCBF01230023FE
:103A70003BB1F5EEC07AF1EE10FA0FDD4FF07E5358
:103A80000B610B6943607047BFEE007AF4EEC77AB2
:103A9000F1EE10FA4CBF01230023E9E7004BEFE7FA
:103AA000000080BFD0ED007A37EEC00A81ED020A37
:103AB00091ED067A30EE077A81ED067AD2ED007A42
:103AC00060EE276AD2ED017A27EE276A92ED025A5C
:103AD00091ED057A25EE077AB7EEC77AB7EEC55AAB
:103AE000B7EE004B34EE454B91ED015A30EE455A9E
:103AF000B7EEC55A04EE057BB7EEC77B81ED010A30
:103B000081ED057A76EE867A37EE877A81ED047A52
:103B1000B5EEC07AF1EE10FA14DDF7EE007AB4EEED
:103B2000E77AF1EE10FACCBF012300233BB1B5EEEA
:103B3000C07AF1EE10FA0FDD4FF07E530B610B6986
:103B400043607047FFEE007AB4EEE77AF1EE10FAC8
:103B50004CBF01230023E9E7004BEFE7000080BFE3
:103B6000D0ED007A37EEC00A81ED020AD1ED015A9C
:103B700030EE256AB7EEC66AB6EE007B26EE076B1E
:103B800092ED034AB7EEC44A91ED067AB7EEC77AD2
:103B900006EE047BB7EEC77B81ED067AD2ED007AA4
:103BA00060EE277AD2ED016A27EE267A92ED035A6B
:103BB000D1ED056A65EE266A92ED026A70EE655AED
:103BC00066EE255A85EE856A76EE866A81ED010AF3
:103BD000C1ED056A37EE877A37EE267A81ED047AF1
:103BE000B5EEC07AF1EE10FA14DDF7EE007AB4EE1D
:103BF000E77AF1EE10FACCBF012300233BB1B5EE1A
:103C0000C07AF1EE10FA0FDD4FF07E530B610B69B5
:103C100043607047FFEE007AB4EEE77AF1EE10FAF7
:103C20004CBF01230023E9E7004BEFE7000080BF12
:103C300082B00A4B1A6C42F080521A641A6C02F07D
:103C400080520092009A5A6C42F480425A645B6C33
:103C500003F480430193019B02B070470038024097
:103C6000FEE7FEE7FEE7FEE7FEE7704770477047B6
:103C700008B500F097FD08BD08B5024802F0DCFA6F
:103C800008BD00BF3C06002008B5024802F0D4FA87
:103C900008BD00BF0408002008B5024801F044F840
:103CA00008BD00BF4004002008B5024801F03CF800
:103CB00008BD00BF4004002008B5024801F034F8F8
:103CC00008BD00BF4004002008B5024801F02CF8F0
:103CD00008BD00BF4004002008B503460B4A126827
:103CE00042B10A4A106803446A46934206D8074A1A
:103CF000136008BD054A06491160F2E703F03EFA79
:103D00000C2303604FF0FF30F3E700BF2C040020CA
:103D1000E0080020034AD2F8883043F47003C2F868
:103D20008830704700ED00E000B58DB02022002102
:103D300004A803F04DFA0023009301930293124864
:103D4000124A0260436083604FF6FF72C2600361F3
:103D500043618361012303930593099303A902F04F
:103D60001DFC58B90023009301930293694606484D
:103D700002F062FE28B90DB05DF804FBFEF792FD7B
:103D8000F0E7FEF78FFDF6E788060020000001400F
:103D900000B58DB02022002104A803F019FA0023F9
:103DA00000930193029312484FF0804202604360F7
:103DB00083604FF6FF72C260036183610123039346
:103DC0000593099303A902F0E9FB50B9002300937E
:103DD00002936946064802F02FFE28B90DB05DF83F
:103DE00004FBFEF75FFDF1E7FEF75CFDF6E700BFC1
:103DF0002007002000B58DB02022002104A803F088
:103E0000E7F900230093019302931148114A0260DD
:103E1000436083604FF6FF72C260036183610123D8
:103E200003930593099303A902F0B8FB50B900234B
:103E3000009302936946064802F0FEFD28B90DB0D2
:103E40005DF804FBFEF72EFDF1E7FEF72BFDF6E72C
:103E5000A40500200004004000B58DB02022002100
:103E600004A803F0B5F900230093019302931148CD
:103E7000114A0260436083604FF6FF72C2600361C3
:103E80008361012303930593099303A902F086FB41
:103E900050B90023009302936946064802F0CCFD16
:103EA00028B90DB05DF804FBFEF7FCFCF1E7FEF766
:103EB000F9FCF6E70C0500200008004000B585B0CD
:103EC00000230193029303930F48104A026040F2CB
:103ED0000D124260836042F20F72C260836102F091
:103EE000FFFA50B900230193039301A9064802F099
:103EF000A3FD28B905B05DF804FBFEF7D3FCF1E79C
:103F0000FEF7D0FCF6E700BF3C06002000100040A2
:103F100000B585B000230193029303930F48104A24
:103F2000026040F21B224260836042F20F72C26064
:103F3000836102F0D5FA50B900230193039301A9DC
:103F4000064802F079FD28B905B05DF804FBFEF7DC
:103F5000A9FCF1E7FEF7A6FCF6E700BF0408002085
:103F60000014004000B58DB02022002104A803F009
:103F70002FF900230093019302931248124A026022
:103F8000436083604FF6FF72C260036143618361E7
:103F9000012303930593099303A902F0FFFA58B98B
:103FA00000230093019302936946064802F044FD02
:103FB00028B90DB05DF804FBFEF774FCF0E7FEF7DE
:103FC00071FCF6E7C00400200004014030B591B058
:103FD00000230B930C930D930E930F9303685E4A8B
:103FE00093420ED0B3F1804F2AD05C4A93425AD00C
:103FF0005B4A934274D05B4A934200F08E8011B0CA
:1040000030BD594B5A6C42F001025A645A6C02F0AE
:1040100001020092009A1A6B42F010021A631B6BA5
:1040200003F010030193019B4FF420630B930223D1
:104030000C9301230F930BA94C4801F01BF8DEE70A
:1040400003F50E331A6C42F001021A641A6C02F086
:1040500001020292029A1A6B42F001021A631A6B71
:1040600002F001020392039A1A6B42F002021A63F1
:104070001B6B03F002030493049B20230B93022584
:104080000C9501240F940BA9394800F0F3FF082385
:104090000B930C9500230D930E930F940BA93548A9
:1040A00000F0E8FFABE7304B1A6C42F002021A64F2
:1040B0001A6C02F002020592059A1A6B42F0020293
:1040C0001A631B6B03F002030693069B30230B93CA
:1040D00002230C930F930BA9264800F0CBFF8EE729
:1040E000214B1A6C42F004021A641A6C02F00402AA
:1040F0000792079A1A6B42F002021A631B6B03F0D5
:1041000002030893089BC0230B9302230C930F9385
:104110000BA9184800F0AEFF71E7134B5A6C42F040
:1041200002025A645A6C02F002020992099A1A6B4E
:1041300042F004021A631B6B03F004030A930A9B08
:10414000C0230B9302230C9303230F930BA90A485C
:1041500000F090FF53E700BF000001400004004062
:1041600000080040000401400038024000100240F6
:1041700000000240000402400008024084B00368CE
:10418000154A934207D0154A93420FD0144A9342DE
:1041900017D004B07047134B1A6C42F008021A642F
:1041A0001B6C03F008030193019BF2E70D4B5A6C63
:1041B00042F480325A645B6C03F480330293029BB6
:1041C000E7E7084B1A6C42F040021A641B6C03F0DC
:1041D00040030393039BDCE7000C004000400140D8
:1041E000001800400038024000B585B00368254A39
:1041F00093420BD0244A93421BD0244A93422BD0A3
:10420000234A934233D005B05DF804FB214B1A6C6E
:1042100042F010021A641B6C03F010030093009B21
:1042200000221146362000F0BDFE362000F0ECFEE4
:10423000E9E7184B1A6C42F020021A641B6C03F079
:1042400020030193019B00221146372000F0AAFEB3
:10425000372000F0D9FED6E70E4B1A6C42F08002F0
:104260001A641B6C03F080030293029BCBE7094B9B
:104270001A6C42F480721A641B6C03F4807303930B
:10428000039BC0E70010004000140040001C0040E9
:10429000002000400038024000B58BB00023059399
:1042A000069307930893099303683E4A93420ED0FE
:1042B0003D4A93421FD03D4A934231D03C4A9342FB
:1042C00044D03C4A934257D00BB05DF804FB3A4BC4
:1042D0001A6B42F001021A631B6B03F00103009397
:1042E000009B0F23059302230693099305A93348E6
:1042F00000F0C0FEE8E7304B1A6B42F010021A6380
:104300001B6B03F010030193019B602305930223B1
:1043100006930323099305A9294800F0ABFED3E7D0
:10432000254B1A6B42F002021A631B6B03F0020367
:104330000293029B4FF44043059302230693092303
:10434000099305A91F4800F095FEBDE71A4B1A6BAB
:1043500042F020021A631B6B03F020030393039BBC
:104360004FF480730593022306930923099305A94B
:10437000154800F07FFEA7E70F4B1A6B42F02002B2
:104380001A631B6B03F020030493049B4FF4007328
:104390000593022306930923099305A90A4800F00F
:1043A00069FE91E7000C0040004001400018004009
:1043B000001C004000200040003802400000024085
:1043C00000100240000402400014024000B58BB00F
:1043D0000023079308930993009301930293039397
:1043E0000493059306932548254A02604360836041
:1043F00040F23742C2600361836102F0A0F850BB13
:1044000000230793099307A91C4802F015FB28BB5A
:104410006023009300220192029204926946174899
:1044200002F04CF9E8B904226946144802F046F952
:10443000D0B908226946114802F040F9B8B90C22F7
:1044400069460E4802F03AF9A0B90C48FFF724FF7C
:104450000BB05DF804FBFEF725FAD1E7FEF722FA70
:10446000D6E7FEF71FFADEE7FEF71CFAE1E7FEF7F4
:1044700019FAE4E7FEF716FAE7E700BF580500204F
:10448000000C004000B589B0002301930293039310
:1044900004930593069307931648174A02604360F6
:1044A000836040F23742C2600361836102F047F8E3
:1044B000B8B960230193002202920392059201A9E8
:1044C0000C4802F0FBF878B904220DEB0201094810
:1044D00002F0F4F858B90748FFF7DEFE09B05DF8BE
:1044E00004FBFEF7DFF9E4E7FEF7DCF9ECE7FEF7A3
:1044F000D9F9F0E7D40600200040014000B589B0AA
:104500000023019302930393049305930693079367
:104510001648174A02604360836040F23742C26027
:104520000361836102F00BF8B8B9602301930022A4
:1045300002920392059201A90C4802F0BFF878B9E3
:1045400004220DEB0201094802F0B8F858B90748F7
:10455000FFF7A2FE09B05DF804FBFEF7A3F9E4E75C
:10456000FEF7A0F9ECE7FEF79DF9F0E7B8070020A9
:104570000018004000B589B0002301930293039313
:1045800004930593069307931548164A02609622F2
:104590004260836042F20F72C2600361836101F086
:1045A0009FFFA0B90E4801F0CAFF98B9602301939C
:1045B000002202920392059201A9094802F07EF8B6
:1045C00058B90748FFF768FE09B05DF804FBFEF72D
:1045D00069F9E7E7FEF766F9E8E7FEF763F9F0E760
:1045E000F0050020001C004000B589B000230193B5
:1045F0000293039304930593069307931548164A71
:10460000026096224260836042F20F72C2600361D0
:10461000836101F065FFA0B90E4801F090FF98B9E1
:1046200060230193002202920392059201A9094896
:1046300002F044F858B90748FFF72EFE09B05DF8BC
:1046400004FBFEF72FF9E7E7FEF72CF9E8E7FEF7A2
:1046500029F9F0E76C0700200020004008B50B485E
:104660000B4B03604FF4E133436000238360C3606E
:1046700003610C2242618361C3610362436202F001
:1046800022FD00B908BDFEF70DF9FBE75008002038
:104690000010014000B589B00023039304930593F3
:1046A00006930793026803F1804303F588339A4227
:1046B00002D009B05DF804FB03F594335A6C42F064
:1046C00010025A645A6C02F010020192019A1A6B9D
:1046D00042F001021A631B6B03F001030293029B79
:1046E0004FF4C06303930223049303230693072329
:1046F000079303A9014800F0BDFCDAE7000002407F
:104700000FB410B5C2B044AB53F8042B01934FF46F
:10471000807102A803F0CCF9002407E00A230122EB
:1047200002A92144064802F027FC013402AB1B5DBC
:10473000002BF3D142B0BDE8104004B0704700BF79
:104740005008002010B504460E4B18784FF47A73C9
:10475000B3FBF0F30C4A1068B0FBF3F000F074FC0C
:1047600068B90F2C01D901200AE0002221464FF040
:10477000FF3000F017FC034B5C60002000E00120DC
:1047800010BD00BF040000200000002008B5032079
:1047900000F0F6FB0F20FFF7D5FFFFF749FA0020E6
:1047A00008BD0000034A1168034B1B780B441360DB
:1047B000704700BFD408002004000020014B186897
:1047C000704700BFD408002038B50446FFF7F6FF55
:1047D0000546B4F1FF3F02D0044B1B781C44FFF7A1
:1047E000EDFF401BA042FAD338BD00BF04000020FB
:1047F000002800F0A18038B5044690F82030D3B1ED
:104800002268136843F001031360FFF7D7FF0546E2
:1048100023685A6812F0010F10D1FFF7CFFF401B39
:104820000A28F5D9636A43F400336362052384F8E8
:104830002030012038BDFBF73BFFE1E71A6822F08A
:1048400002021A60FFF7BAFF054623685A6812F0A1
:10485000020F0DD0FFF7B2FF401B0A28F5D9636A9B
:1048600043F400336362052384F820300120E1E73C
:10487000227E012A3DD01A6822F080021A60637EEF
:10488000012B3BD02268136823F040031360A37E02
:10489000012B39D02268136823F020031360E37ED4
:1048A000012B37D02268136843F010031360237F75
:1048B000012B35D02268136823F008031360637F4F
:1048C000012B33D02268136823F004031360A3681C
:1048D000E268134322691343626913436268013A31
:1048E00021681343CB6100206062012384F82030EB
:1048F000A0E71A6842F080021A60C0E722681368D5
:1049000043F040031360C2E72268136843F02003BA
:104910001360C4E72268136823F010031360C6E72E
:104920002268136843F008031360C8E7226813681D
:1049300043F004031360CAE701207047036890F84E
:104940002020013AD2B2012A05D9436A43F48023D8
:1049500043620120704770B4434A934200D0434BF6
:10496000D3F8002242F00102C3F800223F4A9342EA
:1049700042D04A6902F01F02012000FA02F2D3F885
:104980001C42D0430440C3F81C42CC69ACB9D3F8F4
:104990000C420440C3F80C42CE688D884C6945EA4D
:1049A0000645483443F834508E680D884C6945EA12
:1049B0000645483403EBC4046560CC69012C29D05A
:1049C0008C69002C3DD1D3F804420440C3F8044262
:1049D0000C69002C3BD1D3F814422040C3F81402D8
:1049E000096A012939D0D3F8002222F00102C3F864
:1049F0000022002070BC7047D3F8002222F47C52C1
:104A0000C3F80022D3F80022486A42EA0022C3F821
:104A10000022AEE7D3F80C421443C3F80C420E68F0
:104A20008D884C6945EA0645483443F834508E6811
:104A30008D894C6945EA0645483403EBC40465603A
:104A4000BEE7D3F804421443C3F80442C0E7D3F8E6
:104A500014021043C3F81402C2E7D3F81C120A432D
:104A6000C3F81C22BFE700BF0034004000640040D0
:104A700038B590F82030DBB2012B05D0436A43F4FF
:104A800000234362012038BD0446022380F8203011
:104A90000268136823F001031360FFF78FFE0546D9
:104AA00023685B6813F0010F0DD0FFF787FE401BF2
:104AB0000A28F5D9636A43F400336362052384F856
:104AC00020300120DFE700206062DCE770B490F85E
:104AD00020400568AD68013CE4B2012C06D9436A68
:104AE00043F480234362012070BC704715F0E05FFF
:104AF0005BD0C5F30165022D3ED80124AC401C609B
:104B00008B68002B3ED10E68CB68046843EA46569A
:104B100005F118031B01E65003680C6905F118063E
:104B200003EB06135C600B7D012B36D0D1799379B2
:104B30001B0443EA0163517943EA012314790168B4
:104B400023432C012144C1F88C31D17893781B0484
:104B500043EA0163517843EA0123117802680B4369
:104B60002244C2F88831026818352D01535943F0A8
:104B7000010353510020B7E7436A43F40003436243
:104B80000120B1E74C6843EAC403CC6806682343BC
:104B900005F1180424013351BEE7036803EB061343
:104BA000596841F480715960C0E7436A43F40013C7
:104BB0004362012098E730B490F82040013CE4B211
:104BC000012C06D9436A43F480234362012030BCA0
:104BD000704700296FD10468E46814F0030F64D0B3
:104BE000056801F11B0424012C5904F004049460AD
:104BF000002C6BD1056801F11B0424012C59640DB4
:104C00001460056801F11B0424012D5905F002050B
:104C1000D560056825446D6805F00F0515610568C8
:104C200025446D68C5F30725956105682C446468C3
:104C3000240C546104680A011444D4F8B8411C706F
:104C400004681444D4F8B841C4F307245C700468C1
:104C50001444D4F8B841C4F307449C700468144465
:104C6000D4F8B841240EDC7004681444D4F8BC4174
:104C70001C7104681444D4F8BC41C4F307245C716B
:104C800004681444D4F8BC41C4F307449C7104681C
:104C90002244D2F8BC21120EDA71F9B90268D36845
:104CA00043F02003D360002091E7436A43F40013EC
:104CB000436201208BE70468246914F0030F8FD14D
:104CC000436A43F400134362012080E7056801F161
:104CD0001B0424012C59E408546092E7026813690C
:104CE00043F020031361002071E790F82030013B6E
:104CF000DBB2012B05D9436A43F4802343620120D0
:104D0000704702685369194351610020704770472A
:104D100070477047704770477047704770477047DB
:104D200070477047704770472DE9F84F0546036894
:104D30005C695F689E68D3F80C90D3F81080D3F854
:104D400018A014F0010F5AD016F0010F17D001224D
:104D50009A6016F0020F08D116F0040F30D116F049
:104D6000080F07D04FF4805B0BE0FFF7D0FF4FF048
:104D7000000B06E0FFF7CEFF4FF0000B01E04FF015
:104D8000000B16F4807F0BD02B684FF480729A6072
:104D900016F4007F17D116F4806F18D04BF4005B27
:104DA00016F4803F2DD02B684FF480329A6016F4B1
:104DB000003F16D116F4802F17D04BF4004B20E0A3
:104DC0004FF4006BDDE72846FFF7A2FFE8E716F493
:104DD000006F02D04BF4804BE2E72846FFF79BFFC1
:104DE000DEE72846FFF795FF0BE016F4002F02D010
:104DF0004BF4803B05E02846FFF78EFF01E04FF0C3
:104E0000000B14F0080F07D019F0100F04D04BF46A
:104E1000007B2B681022DA6014F0040F02D019F026
:104E2000080F60D114F0020F04D02B68DB6813F078
:104E3000030F5FD114F0400F07D018F0100F04D00B
:104E40004BF4806B2B6810221A6114F0200F02D0F3
:104E500018F0080F52D114F0100F04D02B681B6902
:104E600013F0030F51D114F4003F02D017F0100FCC
:104E70004FD114F4803F02D017F0080F50D114F432
:104E8000004F67D017F0040F61D014F4807F04D076
:104E90001AF0010F01D04BF0010B14F4007F04D085
:104EA0001AF0020F01D04BF0020B14F4806F04D003
:104EB0001AF0040F01D04BF0040B14F4006F46D02D
:104EC0001AF0700A43D0BAF1300F48D02FD9BAF196
:104ED000500F47D0BAF1600F47D0BAF1400F31D12F
:104EE0004BF0400B2EE02B680822DA602846FFF7D3
:104EF00015FF97E72846FFF710FF9BE72B6808226E
:104F00001A612846FFF70CFFA5E72846FFF707FFC1
:104F1000A9E72B6810225A602846FFF702FFA8E78E
:104F20002B6808225A602846FFF7FCFEA7E7BAF173
:104F3000100F05D0BAF1200F04D14BF0100B01E097
:104F40004BF0080B2A68936923F0700393612B6878
:104F500004225A60BBF1000F0AD1BDE8F88F4BF074
:104F6000200BEFE74BF0800BECE74BF4807BE9E79D
:104F70006B6A43EA0B036B622846FFF7D4FEECE74B
:104F80000649CB6823F4E0631B041B0C000200F409
:104F9000E0600343024A1A43CA60704700ED00E034
:104FA0000000FA0530B4154BDB68C3F30223C3F1EC
:104FB0000704042C28BF04241D1D062D14D9033B0F
:104FC0004FF0FF3505FA04F421EA0401994005FA8F
:104FD00003F322EA03031943002807DB0901C9B2DE
:104FE000074B195430BC70470023E9E700F00F006D
:104FF0000901C9B2034B1954F4E700BF00ED00E00A
:1050000000E400E014ED00E0002807DB00F01F02E0
:10501000400901239340024A42F82030704700BF04
:1050200000E100E0BFF34F8F0549CA6802F4E06277
:10503000044B1343CB60BFF34F8F00BFFDE700BFAE
:1050400000ED00E00400FA050138B0F1807F0AD2DB
:10505000064B5860064AF02182F823100020986021
:1050600007221A6070470120704700BF10E000E07F
:1050700000ED00E000230F2B00F2E780F0B482B0D7
:105080005EE086685F000324BC4026EA0406CC6824
:10509000BC4034438460466826EA02064C68C4F388
:1050A00000129A403243426057E0DC08083450F85E
:1050B000247003F0070296000F22B24027EA02078D
:1050C0000A69B2403A4340F824205AE0092200E03D
:1050D0000022B2403A4302345C4E46F824205C4A37
:1050E0009468EA4302EA04064F6817F4801F01D06F
:1050F00045EA0406564CA660E46802EA04064F68D6
:1051000017F4001F01D045EA0406514CE6606468BC
:1051100002EA04064F6817F4003F01D045EA04068E
:105120004B4C6660246822404E6816F4803F01D0E4
:1051300045EA0402464C226001330F2B00F28280C4
:1051400001229A400C6804EA0205AA42F4D14C6894
:1051500004F00304013C012C93D94A6802F00302D5
:10516000032A09D0C4685E000322B24024EA020484
:105170008A68B2402243C2604A6802F00302022AEF
:1051800093D004685E000322B24024EA02044A6815
:1051900002F00302B240224302604A6812F4403F28
:1051A000CAD02C4A546C44F480445464526C02F4C7
:1051B00080420192019A9C08A61C244A52F826704B
:1051C00003F0030296000F22B24027EA0207224AA8
:1051D00090423FF47DAF02F58062904222D002F50A
:1051E0008062904220D002F5806290421ED002F58B
:1051F000806290421CD002F5806290421AD002F583
:105200008062904218D002F58062904216D002F57A
:105210008062904214D002F5806290423FF456AF13
:105220000A2256E7012254E7022252E7032250E7FE
:1052300004224EE705224CE706224AE7072248E708
:10524000082246E702B0F0BC7047704700380140C2
:10525000003C01400038024000000240036919424E
:1052600001D1002070470120704712B90904816103
:10527000704781617047436901EA030221EA030133
:1052800041EA02418161704710B582B01B4B1A6C34
:1052900042F080521A641B6C03F080530193019B0F
:1052A000174A136843F480331360FFF787FA044604
:1052B000134B5B6813F4803F08D1FFF77FFA001BA4
:1052C000B0F57A7FF4D9032002B010BD0C4A136800
:1052D00043F400331360FFF771FA0446084B5B6830
:1052E00013F4003F07D1FFF769FA001BB0F57A7F8E
:1052F000F4D90320E8E70020E6E700BF00380240C9
:1053000000700040002800F0128270B582B00446A0
:10531000036813F0010F29D0A24B9B6803F00C0324
:10532000042B1AD09F4B9B6803F00C03082B0FD063
:105330006368B3F5803F40D0002B54D1994B1A6875
:1053400022F480321A601A6822F480221A6039E04E
:10535000944B5B6813F4800FEAD0924B1B6813F4F4
:10536000003F03D06368002B00F0E381236813F053
:10537000020F75D08B4B9B6813F00C0F5ED0894BDE
:105380009B6803F00C03082B53D0E368002B00F05C
:105390008A80844A136843F001031360FFF70EFA12
:1053A0000546804B1B6813F0020F73D1FFF706FA16
:1053B000401B0228F5D90320BEE17A4A136843F462
:1053C0008033136063682BB3FFF7F8F90546754B1C
:1053D0001B6813F4003FC9D1FFF7F0F9401B6428A4
:1053E000F5D90320A8E1B3F5A02F09D06D4B1A68B9
:1053F00022F480321A601A6822F480221A60E1E7EF
:10540000684B1A6842F480221A601A6842F48032AB
:105410001A60D7E7FFF7D2F90546624B1B6813F411
:10542000003FA3D0FFF7CAF9401B6428F5D9032039
:1054300082E15C4B5B6813F4800FA6D1594B1B686B
:1054400013F0020F04D0E368012B01D0012073E1B7
:10545000544A136823F0F803216943EAC103136037
:10546000236813F0080F46D0636983B34D4A536F26
:1054700043F001035367FFF7A1F90546494B5B6F02
:1054800013F0020F37D1FFF799F9401B0228F5D925
:10549000032051E1434A136823F0F803216943EAEA
:1054A000C1031360DCE73F4A136823F00103136074
:1054B000FFF784F905463B4B1B6813F0020FCFD072
:1054C000FFF77CF9401B0228F5D9032034E1354A67
:1054D000536F23F001035367FFF770F90546314B13
:1054E0005B6F13F0020F06D0FFF768F9401B02282C
:1054F000F5D9032020E1236813F0040F7ED0294B57
:105500001B6C13F0805F1ED1264B1A6C42F0805248
:105510001A641B6C03F080530193019B0125224BFD
:105520001B6813F4807F10D0A368012B21D0002BBF
:105530003CD11C4B1A6F22F001021A671A6F22F03D
:1055400004021A671AE00025E9E7174A136843F4D2
:1055500080731360FFF732F90646134B1B6813F490
:10556000807FE1D1FFF72AF9801B6428F5D9032059
:10557000E2E00C4A136F43F001031367A3685BB3C7
:10558000FFF71CF90646074B1B6F13F0020F34D1CF
:10559000FFF714F9801B41F288339842F3D90320B6
:1055A000CAE000BF0038024000700040052B09D05F
:1055B000644B1A6F22F001021A671A6F22F004027C
:1055C0001A67DBE75F4B1A6F42F004021A671A6F23
:1055D00042F001021A67D1E7FFF7F0F80646594B8F
:1055E0001B6F13F0020F08D0FFF7E8F8801B41F2A1
:1055F00088339842F3D903209EE0FDB9A369002BBC
:1056000000F099804F4A926802F00C02082A59D0A3
:10561000022B19D04B4A136823F080731360FFF7F5
:10562000CDF80446474B1B6813F0007F48D0FFF7C6
:10563000C5F8001B0228F5D903207DE0414A136C10
:1056400023F080531364D9E73E4A136823F0807334
:105650001360FFF7B3F805463A4B1B6813F0007F61
:1056600006D0FFF7ABF8401B0228F5D9032063E012
:10567000E369226A1343626A43EA8213A26A520808
:10568000013A43EA0243E26A43EA0263226B43EAD5
:1056900002732C4A5360136843F080731360FFF762
:1056A0008DF80446274B1B6813F0007F06D1FFF7E7
:1056B00085F8001B0228F5D903203DE000203BE0DF
:1056C000002039E01F4A5268012B37D002F48003D2
:1056D000E1698B4201D001202EE002F03F03216AF4
:1056E0008B4201D0012027E0616A47F6C073134066
:1056F000B3EB811F01D001201EE002F44031A36A08
:105700005B08013BB1EB034F01D0012014E002F034
:105710007063E16AB3EB016F01D001200CE002F08D
:10572000E042236BB2EB037F0AD0012004E00120AA
:105730007047012000E0002002B070BD0120FBE7AF
:105740000020F9E700380240324B9B6803F00C035D
:10575000042B5CD0082B01D02F4870472DE9F04B6B
:105760002C4B5A6802F03F025B6813F4800F2BD079
:10577000284B5B68C3F388131E4600275C01002595
:10578000E41A65EB0705A90141EA9461A001001B39
:1057900061EB0501CB0043EA5073C400A01943EB51
:1057A00007014B0243EAD053440220461946002326
:1057B000FAF746FD174B5B68C3F3014301335B0007
:1057C000B0FBF3F0BDE8F08B124B5B68C3F38813BA
:1057D0001E4600275C010025E41A65EB0705A901B8
:1057E00041EA9461A001001B61EB0501CB0043EA93
:1057F0005073C400A01943EB07018B0243EA905396
:105800008402204619460023FAF71AFDD2E703481E
:10581000704700BF003802400024F40000127A00F4
:10582000002800F0A38070B50446524B1B6803F0BB
:105830000F038B420CD24F4A136823F00F030B4324
:105840001360136803F00F038B4201D0012070BD79
:10585000236813F0020F17D013F0040F04D0464A48
:10586000936843F4E0539360236813F0080F04D067
:10587000414A936843F4604393603F4A936823F03E
:10588000F003A068034393600D46236813F0010FF3
:1058900031D06368012B20D0022B25D0364A126804
:1058A00012F0020F64D034498A6822F003021343D5
:1058B0008B60FEF783FF06462F4B9B6803F00C03BB
:1058C0006268B3EB820F16D0FEF778FF801B41F2BF
:1058D00088339842F0D90320B9E7274A126812F4B6
:1058E000003FE0D10120B2E7234A126812F0007FA6
:1058F000D9D10120ABE71F4B1B6803F00F03AB426C
:105900000CD91C4A136823F00F032B431360136850
:1059100003F00F03AB4201D0012098E7236813F096
:10592000040F06D0144A936823F4E053E1680B4354
:105930009360236813F0080F07D00F4A936823F48D
:105940006043216943EAC1039360FFF7FDFE0A4B00
:105950009B68C3F30313094AD35CD840084B186013
:10596000084B1868FEF7EEFE002070E70120704734
:1059700001206CE7003C0240003802409091000892
:105980000000002008000020014B1868704700BF8D
:105990000000002008B5FFF7F7FF044B9B68C3F336
:1059A0008223034AD35CD84008BD00BF00380240C0
:1059B000A091000808B5FFF7E7FF044B9B68C3F30D
:1059C0004233034AD35CD84008BD00BF00380240D0
:1059D000A0910008F0B583B00446036813F0010FEE
:1059E0000CD0BC4B9A6822F400029A609A68416B12
:1059F0000A439A60436BC3B1002600E00026236887
:105A000013F4002F15D0B34AD2F88C3023F440138E
:105A1000E16B0B43C2F88C30E36BB3F5801F06D00B
:105A2000002B00F05381002504E00126E7E7012662
:105A3000F6E70025236813F4801F0FD0A54AD2F89B
:105A40008C3023F44003216C0B43C2F88C30236C60
:105A5000B3F5800F00F03C8103B90125236813F0F2
:105A6000807F00D0012613F0200F40F0358123689D
:105A700013F0100F0CD0974BD3F88C2022F08072CB
:105A8000C3F88C20D3F88C20A16B0A43C3F88C2078
:105A9000236813F4804F08D08E4AD2F8903023F454
:105AA0004033616E0B43C2F89030236813F4004F0B
:105AB00008D0884AD2F8903023F44023A16E0B43DB
:105AC000C2F89030236813F4803F08D0814AD2F89E
:105AD000903023F44013E16E0B43C2F890302368FA
